{
  "contractName": "DeadManSwitch",
  "abi": [
    {
      "inputs": [],
      "payable": false,
      "stateMutability": "nonpayable",
      "type": "constructor"
    },
    {
      "constant": false,
      "inputs": [],
      "name": "still_alive",
      "outputs": [],
      "payable": false,
      "stateMutability": "nonpayable",
      "type": "function"
    },
    {
      "constant": false,
      "inputs": [],
      "name": "doTransaction",
      "outputs": [],
      "payable": false,
      "stateMutability": "nonpayable",
      "type": "function"
    }
  ],
  "bytecode": "0x608060405234801561001057600080fd5b50336000806101000a81548173ffffffffffffffffffffffffffffffffffffffff021916908373ffffffffffffffffffffffffffffffffffffffff16021790555066038d7ea4c680006001819055506000600381905550610212806100766000396000f3fe608060405234801561001057600080fd5b50600436106100365760003560e01c80633d58225a1461003b5780635d92422414610045575b600080fd5b61004361004f565b005b61004d6100b2565b005b6000809054906101000a900473ffffffffffffffffffffffffffffffffffffffff1673ffffffffffffffffffffffffffffffffffffffff163373ffffffffffffffffffffffffffffffffffffffff16146100a857600080fd5b6000600381905550565b6001600354016003819055506000809054906101000a900473ffffffffffffffffffffffffffffffffffffffff1673ffffffffffffffffffffffffffffffffffffffff163373ffffffffffffffffffffffffffffffffffffffff161415801561011d5750600a600354115b156101335761012a610135565b6101326101a2565b5b565b600260009054906101000a900473ffffffffffffffffffffffffffffffffffffffff1673ffffffffffffffffffffffffffffffffffffffff166108fc6001549081150290604051600060405180830381858888f1935050505015801561019f573d6000803e3d6000fd5b50565b600260009054906101000a900473ffffffffffffffffffffffffffffffffffffffff1673ffffffffffffffffffffffffffffffffffffffff16fffea265627a7a7231582056475d62ef609cdbd8fd9de0b0ccab972db4981f8235fc2ac842e8ca94bd7c6064736f6c63430005100032",
  "source": "// SPDX-License-Identifier: MIT\npragma solidity >=0.4.22 <0.9.0;\n\ncontract DeadManSwitch {\n    address payable owner;\n    uint256 balance;\n    address payable preSetAddress;\n    uint256 blockCountSinceOwner;\n\n    constructor() public {\n        // preSetAddress = preSet;\n        owner = msg.sender;\n        balance = 1000000000000000;\n        blockCountSinceOwner = 0;\n    }\n\n    function still_alive() external {\n        require(msg.sender == owner);\n        blockCountSinceOwner = 0;\n    }\n\n    function destroyContract() internal {\n        selfdestruct(preSetAddress);\n    }\n\n    function transferBalance() internal {\n        preSetAddress.transfer(balance);\n    }\n\n    function doTransaction() public {\n        blockCountSinceOwner = blockCountSinceOwner + 1;\n        if (msg.sender != owner && blockCountSinceOwner > 10) {\n            transferBalance();\n            destroyContract();\n        }\n    }\n}\n",
  "sourcePath": "/home/uday/programming/ethereum-india-fellowship/week2/deadman-switch/contracts/DeadManSwitch.sol",
  "compiler": {
    "name": "solc",
    "version": "0.5.16+commit.9c3226ce.Emscripten.clang"
  },
  "schemaVersion": "3.3.4",
  "updatedAt": "2021-02-13T13:26:24.232Z",
  "networkType": "ethereum",
  "devdoc": {
    "methods": {}
  },
  "userdoc": {
    "methods": {}
  }
}